{
  "_format": "hh-sol-artifact-1",
  "contractName": "SemiStableSwap",
  "sourceName": "contracts/SemiStableSwap.sol",
  "abi": [
    {
      "inputs": [
        {
          "internalType": "contract ISwapRouter",
          "name": "_swapRouter",
          "type": "address"
        }
      ],
      "stateMutability": "nonpayable",
      "type": "constructor"
    },
    {
      "inputs": [],
      "name": "MAX_SWAP_AMOUNT",
      "outputs": [
        {
          "internalType": "uint256",
          "name": "",
          "type": "uint256"
        }
      ],
      "stateMutability": "view",
      "type": "function"
    },
    {
      "inputs": [
        {
          "internalType": "uint256",
          "name": "amountIn",
          "type": "uint256"
        },
        {
          "internalType": "uint256",
          "name": "amountOutMinimum",
          "type": "uint256"
        },
        {
          "internalType": "address",
          "name": "tokenIn",
          "type": "address"
        },
        {
          "internalType": "address",
          "name": "tokenOut",
          "type": "address"
        },
        {
          "internalType": "uint24",
          "name": "poolFee",
          "type": "uint24"
        }
      ],
      "name": "semiStableSwap",
      "outputs": [
        {
          "internalType": "uint256",
          "name": "amountOut",
          "type": "uint256"
        }
      ],
      "stateMutability": "nonpayable",
      "type": "function"
    },
    {
      "inputs": [],
      "name": "swapRouter",
      "outputs": [
        {
          "internalType": "contract ISwapRouter",
          "name": "",
          "type": "address"
        }
      ],
      "stateMutability": "view",
      "type": "function"
    }
  ],
  "bytecode": "0x60a060405234801561001057600080fd5b50604051610a06380380610a06833981810160405281019061003291906100e1565b8073ffffffffffffffffffffffffffffffffffffffff1660808173ffffffffffffffffffffffffffffffffffffffff16815250505061010e565b600080fd5b600073ffffffffffffffffffffffffffffffffffffffff82169050919050565b600061009c82610071565b9050919050565b60006100ae82610091565b9050919050565b6100be816100a3565b81146100c957600080fd5b50565b6000815190506100db816100b5565b92915050565b6000602082840312156100f7576100f661006c565b5b6000610105848285016100cc565b91505092915050565b6080516108d06101366000396000818160c101528181610244015261038901526108d06000f3fe608060405234801561001057600080fd5b50600436106100415760003560e01c80639759f76e14610046578063c31c9c0714610064578063f6a6dd8614610082575b600080fd5b61004e6100b2565b60405161005b9190610448565b60405180910390f35b61006c6100bf565b60405161007991906104e2565b60405180910390f35b61009c600480360381019061009791906105a7565b6100e3565b6040516100a99190610448565b60405180910390f35b683635c9adc5dea0000081565b7f000000000000000000000000000000000000000000000000000000000000000081565b6000683635c9adc5dea0000086111561018c576000683635c9adc5dea000008761010d9190610680565b90506000683635c9adc5dea000008861012691906106b1565b905060005b8281101561016a5761014a683635c9adc5dea0000060008989896101a5565b8461015591906106e2565b9350808061016290610716565b91505061012b565b5061017881888888886101a5565b8361018391906106e2565b9250505061019c565b61019986868686866102ea565b90505b95945050505050565b6000806040518061010001604052808673ffffffffffffffffffffffffffffffffffffffff1681526020018573ffffffffffffffffffffffffffffffffffffffff1681526020018462ffffff1681526020013373ffffffffffffffffffffffffffffffffffffffff168152602001428152602001888152602001878152602001600073ffffffffffffffffffffffffffffffffffffffff1681525090507f000000000000000000000000000000000000000000000000000000000000000073ffffffffffffffffffffffffffffffffffffffff1663414bf389826040518263ffffffff1660e01b815260040161029b919061083c565b6020604051808303816000875af11580156102ba573d6000803e3d6000fd5b505050506040513d601f19601f820116820180604052508101906102de919061086d565b91505095945050505050565b6000806040518061010001604052808673ffffffffffffffffffffffffffffffffffffffff1681526020018573ffffffffffffffffffffffffffffffffffffffff1681526020018462ffffff1681526020013373ffffffffffffffffffffffffffffffffffffffff168152602001428152602001888152602001878152602001600073ffffffffffffffffffffffffffffffffffffffff1681525090507f000000000000000000000000000000000000000000000000000000000000000073ffffffffffffffffffffffffffffffffffffffff1663414bf389826040518263ffffffff1660e01b81526004016103e0919061083c565b6020604051808303816000875af11580156103ff573d6000803e3d6000fd5b505050506040513d601f19601f82011682018060405250810190610423919061086d565b91505095945050505050565b6000819050919050565b6104428161042f565b82525050565b600060208201905061045d6000830184610439565b92915050565b600073ffffffffffffffffffffffffffffffffffffffff82169050919050565b6000819050919050565b60006104a86104a361049e84610463565b610483565b610463565b9050919050565b60006104ba8261048d565b9050919050565b60006104cc826104af565b9050919050565b6104dc816104c1565b82525050565b60006020820190506104f760008301846104d3565b92915050565b600080fd5b61050b8161042f565b811461051657600080fd5b50565b60008135905061052881610502565b92915050565b600061053982610463565b9050919050565b6105498161052e565b811461055457600080fd5b50565b60008135905061056681610540565b92915050565b600062ffffff82169050919050565b6105848161056c565b811461058f57600080fd5b50565b6000813590506105a18161057b565b92915050565b600080600080600060a086880312156105c3576105c26104fd565b5b60006105d188828901610519565b95505060206105e288828901610519565b94505060406105f388828901610557565b935050606061060488828901610557565b925050608061061588828901610592565b9150509295509295909350565b7f4e487b7100000000000000000000000000000000000000000000000000000000600052601260045260246000fd5b7f4e487b7100000000000000000000000000000000000000000000000000000000600052601160045260246000fd5b600061068b8261042f565b91506106968361042f565b9250826106a6576106a5610622565b5b828204905092915050565b60006106bc8261042f565b91506106c78361042f565b9250826106d7576106d6610622565b5b828206905092915050565b60006106ed8261042f565b91506106f88361042f565b92508282019050808211156107105761070f610651565b5b92915050565b60006107218261042f565b91507fffffffffffffffffffffffffffffffffffffffffffffffffffffffffffffffff820361075357610752610651565b5b600182019050919050565b6107678161052e565b82525050565b6107768161056c565b82525050565b6107858161042f565b82525050565b61079481610463565b82525050565b610100820160008201516107b1600085018261075e565b5060208201516107c4602085018261075e565b5060408201516107d7604085018261076d565b5060608201516107ea606085018261075e565b5060808201516107fd608085018261077c565b5060a082015161081060a085018261077c565b5060c082015161082360c085018261077c565b5060e082015161083660e085018261078b565b50505050565b600061010082019050610852600083018461079a565b92915050565b60008151905061086781610502565b92915050565b600060208284031215610883576108826104fd565b5b600061089184828501610858565b9150509291505056fea26469706673582212208933b39ad5f951fb50af8947af5ed2281e09fb2ea82d8c7f8d0ea268aba74e6564736f6c63430008140033",
  "linkReferences": {},
  "deployedLinkReferences": {}
}